{
  "_format": "hh-sol-artifact-1",
  "contractName": "Land",
  "sourceName": "contracts/Land.sol",
  "abi": [
    {
      "inputs": [
        {
          "internalType": "uint256",
          "name": "_SurveyNo",
          "type": "uint256"
        },
        {
          "internalType": "string",
          "name": "_HissNo",
          "type": "string"
        },
        {
          "internalType": "uint256",
          "name": "_area",
          "type": "uint256"
        },
        {
          "internalType": "bool",
          "name": "_conventional",
          "type": "bool"
        },
        {
          "internalType": "uint256",
          "name": "_pincode",
          "type": "uint256"
        },
        {
          "internalType": "uint256",
          "name": "_user_adhar",
          "type": "uint256"
        }
      ],
      "name": "add_land",
      "outputs": [],
      "stateMutability": "nonpayable",
      "type": "function"
    },
    {
      "inputs": [
        {
          "internalType": "string",
          "name": "s1",
          "type": "string"
        },
        {
          "internalType": "string",
          "name": "s2",
          "type": "string"
        }
      ],
      "name": "compare",
      "outputs": [
        {
          "internalType": "bool",
          "name": "",
          "type": "bool"
        }
      ],
      "stateMutability": "pure",
      "type": "function"
    },
    {
      "inputs": [
        {
          "internalType": "uint256",
          "name": "_adharNo",
          "type": "uint256"
        }
      ],
      "name": "display_land_of_user",
      "outputs": [
        {
          "components": [
            {
              "internalType": "uint256",
              "name": "owner_adhar",
              "type": "uint256"
            },
            {
              "internalType": "uint256",
              "name": "land_id",
              "type": "uint256"
            },
            {
              "internalType": "uint256",
              "name": "SurveyNo",
              "type": "uint256"
            },
            {
              "internalType": "string",
              "name": "HissNo",
              "type": "string"
            },
            {
              "internalType": "uint256",
              "name": "area",
              "type": "uint256"
            },
            {
              "internalType": "bool",
              "name": "conventional",
              "type": "bool"
            },
            {
              "internalType": "uint256",
              "name": "pincode",
              "type": "uint256"
            }
          ],
          "internalType": "struct Land.Land_Details[]",
          "name": "",
          "type": "tuple[]"
        }
      ],
      "stateMutability": "view",
      "type": "function"
    },
    {
      "inputs": [
        {
          "internalType": "uint256",
          "name": "",
          "type": "uint256"
        }
      ],
      "name": "landdetails",
      "outputs": [
        {
          "internalType": "uint256",
          "name": "owner_adhar",
          "type": "uint256"
        },
        {
          "internalType": "uint256",
          "name": "land_id",
          "type": "uint256"
        },
        {
          "internalType": "uint256",
          "name": "SurveyNo",
          "type": "uint256"
        },
        {
          "internalType": "string",
          "name": "HissNo",
          "type": "string"
        },
        {
          "internalType": "uint256",
          "name": "area",
          "type": "uint256"
        },
        {
          "internalType": "bool",
          "name": "conventional",
          "type": "bool"
        },
        {
          "internalType": "uint256",
          "name": "pincode",
          "type": "uint256"
        }
      ],
      "stateMutability": "view",
      "type": "function"
    },
    {
      "inputs": [],
      "name": "landid",
      "outputs": [
        {
          "internalType": "uint256",
          "name": "",
          "type": "uint256"
        }
      ],
      "stateMutability": "view",
      "type": "function"
    },
    {
      "inputs": [
        {
          "internalType": "uint256",
          "name": "_SurveyNo",
          "type": "uint256"
        },
        {
          "internalType": "string",
          "name": "_HissNo",
          "type": "string"
        }
      ],
      "name": "make_conventional",
      "outputs": [],
      "stateMutability": "nonpayable",
      "type": "function"
    },
    {
      "inputs": [
        {
          "internalType": "uint256",
          "name": "_seller_adhar",
          "type": "uint256"
        },
        {
          "internalType": "uint256",
          "name": "_buyer_adhar",
          "type": "uint256"
        },
        {
          "internalType": "uint256",
          "name": "_SurveyNo",
          "type": "uint256"
        },
        {
          "internalType": "string",
          "name": "_HissNo",
          "type": "string"
        }
      ],
      "name": "transfer_land",
      "outputs": [],
      "stateMutability": "nonpayable",
      "type": "function"
    }
  ],
  "bytecode": "0x60806040526000805534801561001457600080fd5b5061146a806100246000396000f3fe608060405234801561001057600080fd5b506004361061007d5760003560e01c80634ef2c8ad1161005b5780634ef2c8ad146100ec57806352163b8714610122578063e6069b9d1461013e578063f8d18b0c1461016e5761007d565b80632f1bf745146100825780633a96fdd7146100a0578063404dc06d146100d0575b600080fd5b61008a61018a565b604051610097919061091c565b60405180910390f35b6100ba60048036038101906100b59190610a91565b610190565b6040516100c79190610b24565b60405180910390f35b6100ea60048036038101906100e59190610b97565b6101f4565b005b61010660048036038101906101019190610c40565b6102dd565b6040516101199796959493929190610cec565b60405180910390f35b61013c60048036038101906101379190610d62565b6103c4565b005b61015860048036038101906101539190610c40565b610514565b6040516101659190610f84565b60405180910390f35b61018860048036038101906101839190610fa6565b610755565b005b60005481565b600080836040516020016101a49190611065565b6040516020818303038152906040528051906020012090506000836040516020016101cf9190611065565b6040516020818303038152906040528051906020012090508082149250505092915050565b600160005461020391906110ab565b60008190555060016040518060e0016040528083815260200160005481526020018881526020018781526020018681526020018515158152602001848152509080600181540180825580915050600190039060005260206000209060070201600090919091909150600082015181600001556020820151816001015560408201518160020155606082015181600301908161029e91906112eb565b506080820151816004015560a08201518160050160006101000a81548160ff02191690831515021790555060c082015181600601555050505050505050565b600181815481106102ed57600080fd5b90600052602060002090600702016000915090508060000154908060010154908060020154908060030180546103229061110e565b80601f016020809104026020016040519081016040528092919081815260200182805461034e9061110e565b801561039b5780601f106103705761010080835404028352916020019161039b565b820191906000526020600020905b81548152906001019060200180831161037e57829003601f168201915b5050505050908060040154908060050160009054906101000a900460ff16908060060154905087565b60005b60018054905081101561050f5782600182815481106103e9576103e86113bd565b5b9060005260206000209060070201600201541480156104bb57506104ba6001828154811061041a576104196113bd565b5b906000526020600020906007020160030180546104369061110e565b80601f01602080910402602001604051908101604052809291908181526020018280546104629061110e565b80156104af5780601f10610484576101008083540402835291602001916104af565b820191906000526020600020905b81548152906001019060200180831161049257829003601f168201915b505050505083610190565b5b156105025760018082815481106104d5576104d46113bd565b5b906000526020600020906007020160050160006101000a81548160ff02191690831515021790555061050f565b80806001019150506103c7565b505050565b60606000805b60018054905081101561056f57836001828154811061053c5761053b6113bd565b5b9060005260206000209060070201600001540361056257818061055e906113ec565b9250505b808060010191505061051a565b5060008167ffffffffffffffff81111561058c5761058b610966565b5b6040519080825280602002602001820160405280156105c557816020015b6105b26108c4565b8152602001906001900390816105aa5790505b5090506000805b6001805490508110156107495785600182815481106105ee576105ed6113bd565b5b9060005260206000209060070201600001540361073c5760018181548110610619576106186113bd565b5b90600052602060002090600702016040518060e00160405290816000820154815260200160018201548152602001600282015481526020016003820180546106609061110e565b80601f016020809104026020016040519081016040528092919081815260200182805461068c9061110e565b80156106d95780601f106106ae576101008083540402835291602001916106d9565b820191906000526020600020905b8154815290600101906020018083116106bc57829003601f168201915b50505050508152602001600482015481526020016005820160009054906101000a900460ff1615151515815260200160068201548152505083838061071d906113ec565b9450815181106107305761072f6113bd565b5b60200260200101819052505b80806001019150506105cc565b50819350505050919050565b60005b6001805490508110156108bd57826001828154811061077a576107796113bd565b5b90600052602060002090600702016002015414801561084c575061084b600182815481106107ab576107aa6113bd565b5b906000526020600020906007020160030180546107c79061110e565b80601f01602080910402602001604051908101604052809291908181526020018280546107f39061110e565b80156108405780601f1061081557610100808354040283529160200191610840565b820191906000526020600020905b81548152906001019060200180831161082357829003601f168201915b505050505083610190565b5b801561087c57508460018281548110610868576108676113bd565b5b906000526020600020906007020160000154145b156108b0578360018281548110610896576108956113bd565b5b9060005260206000209060070201600001819055506108bd565b8080600101915050610758565b5050505050565b6040518060e001604052806000815260200160008152602001600081526020016060815260200160008152602001600015158152602001600081525090565b6000819050919050565b61091681610903565b82525050565b6000602082019050610931600083018461090d565b92915050565b6000604051905090565b600080fd5b600080fd5b600080fd5b600080fd5b6000601f19601f8301169050919050565b7f4e487b7100000000000000000000000000000000000000000000000000000000600052604160045260246000fd5b61099e82610955565b810181811067ffffffffffffffff821117156109bd576109bc610966565b5b80604052505050565b60006109d0610937565b90506109dc8282610995565b919050565b600067ffffffffffffffff8211156109fc576109fb610966565b5b610a0582610955565b9050602081019050919050565b82818337600083830152505050565b6000610a34610a2f846109e1565b6109c6565b905082815260208101848484011115610a5057610a4f610950565b5b610a5b848285610a12565b509392505050565b600082601f830112610a7857610a7761094b565b5b8135610a88848260208601610a21565b91505092915050565b60008060408385031215610aa857610aa7610941565b5b600083013567ffffffffffffffff811115610ac657610ac5610946565b5b610ad285828601610a63565b925050602083013567ffffffffffffffff811115610af357610af2610946565b5b610aff85828601610a63565b9150509250929050565b60008115159050919050565b610b1e81610b09565b82525050565b6000602082019050610b396000830184610b15565b92915050565b610b4881610903565b8114610b5357600080fd5b50565b600081359050610b6581610b3f565b92915050565b610b7481610b09565b8114610b7f57600080fd5b50565b600081359050610b9181610b6b565b92915050565b60008060008060008060c08789031215610bb457610bb3610941565b5b6000610bc289828a01610b56565b965050602087013567ffffffffffffffff811115610be357610be2610946565b5b610bef89828a01610a63565b9550506040610c0089828a01610b56565b9450506060610c1189828a01610b82565b9350506080610c2289828a01610b56565b92505060a0610c3389828a01610b56565b9150509295509295509295565b600060208284031215610c5657610c55610941565b5b6000610c6484828501610b56565b91505092915050565b600081519050919050565b600082825260208201905092915050565b60005b83811015610ca7578082015181840152602081019050610c8c565b60008484015250505050565b6000610cbe82610c6d565b610cc88185610c78565b9350610cd8818560208601610c89565b610ce181610955565b840191505092915050565b600060e082019050610d01600083018a61090d565b610d0e602083018961090d565b610d1b604083018861090d565b8181036060830152610d2d8187610cb3565b9050610d3c608083018661090d565b610d4960a0830185610b15565b610d5660c083018461090d565b98975050505050505050565b60008060408385031215610d7957610d78610941565b5b6000610d8785828601610b56565b925050602083013567ffffffffffffffff811115610da857610da7610946565b5b610db485828601610a63565b9150509250929050565b600081519050919050565b600082825260208201905092915050565b6000819050602082019050919050565b610df381610903565b82525050565b600082825260208201905092915050565b6000610e1582610c6d565b610e1f8185610df9565b9350610e2f818560208601610c89565b610e3881610955565b840191505092915050565b610e4c81610b09565b82525050565b600060e083016000830151610e6a6000860182610dea565b506020830151610e7d6020860182610dea565b506040830151610e906040860182610dea565b5060608301518482036060860152610ea88282610e0a565b9150506080830151610ebd6080860182610dea565b5060a0830151610ed060a0860182610e43565b5060c0830151610ee360c0860182610dea565b508091505092915050565b6000610efa8383610e52565b905092915050565b6000602082019050919050565b6000610f1a82610dbe565b610f248185610dc9565b935083602082028501610f3685610dda565b8060005b85811015610f725784840389528151610f538582610eee565b9450610f5e83610f02565b925060208a01995050600181019050610f3a565b50829750879550505050505092915050565b60006020820190508181036000830152610f9e8184610f0f565b905092915050565b60008060008060808587031215610fc057610fbf610941565b5b6000610fce87828801610b56565b9450506020610fdf87828801610b56565b9350506040610ff087828801610b56565b925050606085013567ffffffffffffffff81111561101157611010610946565b5b61101d87828801610a63565b91505092959194509250565b600081905092915050565b600061103f82610c6d565b6110498185611029565b9350611059818560208601610c89565b80840191505092915050565b60006110718284611034565b915081905092915050565b7f4e487b7100000000000000000000000000000000000000000000000000000000600052601160045260246000fd5b60006110b682610903565b91506110c183610903565b92508282019050808211156110d9576110d861107c565b5b92915050565b7f4e487b7100000000000000000000000000000000000000000000000000000000600052602260045260246000fd5b6000600282049050600182168061112657607f821691505b602082108103611139576111386110df565b5b50919050565b60008190508160005260206000209050919050565b60006020601f8301049050919050565b600082821b905092915050565b6000600883026111a17fffffffffffffffffffffffffffffffffffffffffffffffffffffffffffffffff82611164565b6111ab8683611164565b95508019841693508086168417925050509392505050565b6000819050919050565b60006111e86111e36111de84610903565b6111c3565b610903565b9050919050565b6000819050919050565b611202836111cd565b61121661120e826111ef565b848454611171565b825550505050565b600090565b61122b61121e565b6112368184846111f9565b505050565b5b8181101561125a5761124f600082611223565b60018101905061123c565b5050565b601f82111561129f576112708161113f565b61127984611154565b81016020851015611288578190505b61129c61129485611154565b83018261123b565b50505b505050565b600082821c905092915050565b60006112c2600019846008026112a4565b1980831691505092915050565b60006112db83836112b1565b9150826002028217905092915050565b6112f482610c6d565b67ffffffffffffffff81111561130d5761130c610966565b5b611317825461110e565b61132282828561125e565b600060209050601f8311600181146113555760008415611343578287015190505b61134d85826112cf565b8655506113b5565b601f1984166113638661113f565b60005b8281101561138b57848901518255600182019150602085019450602081019050611366565b868310156113a857848901516113a4601f8916826112b1565b8355505b6001600288020188555050505b505050505050565b7f4e487b7100000000000000000000000000000000000000000000000000000000600052603260045260246000fd5b60006113f782610903565b91507fffffffffffffffffffffffffffffffffffffffffffffffffffffffffffffffff82036114295761142861107c565b5b60018201905091905056fea264697066735822122008123d5b8e35cdbf49faa3fb58c5802ea1af6f521448a0e91b1ff8c8f82ab37b64736f6c63430008180033",
  "linkReferences": {},
  "deployedLinkReferences": {}
}